{
  "contractName": "Aire",
  "abi": [
    {
      "inputs": [],
      "payable": false,
      "stateMutability": "nonpayable",
      "type": "constructor"
    },
    {
      "anonymous": false,
      "inputs": [
        {
          "indexed": false,
          "internalType": "uint256",
          "name": "id",
          "type": "uint256"
        },
        {
          "indexed": false,
          "internalType": "string",
          "name": "content",
          "type": "string"
        },
        {
          "indexed": false,
          "internalType": "uint256",
          "name": "echos",
          "type": "uint256"
        },
        {
          "indexed": false,
          "internalType": "uint256",
          "name": "mists",
          "type": "uint256"
        },
        {
          "indexed": false,
          "internalType": "address payable",
          "name": "author",
          "type": "address"
        }
      ],
      "name": "AireCreated",
      "type": "event"
    },
    {
      "anonymous": false,
      "inputs": [
        {
          "indexed": false,
          "internalType": "uint256",
          "name": "id",
          "type": "uint256"
        },
        {
          "indexed": false,
          "internalType": "string",
          "name": "content",
          "type": "string"
        },
        {
          "indexed": false,
          "internalType": "address payable",
          "name": "author",
          "type": "address"
        }
      ],
      "name": "AireEchoed",
      "type": "event"
    },
    {
      "anonymous": false,
      "inputs": [
        {
          "indexed": false,
          "internalType": "uint256",
          "name": "id",
          "type": "uint256"
        },
        {
          "indexed": false,
          "internalType": "string",
          "name": "content",
          "type": "string"
        },
        {
          "indexed": false,
          "internalType": "address payable",
          "name": "author",
          "type": "address"
        }
      ],
      "name": "AireMist",
      "type": "event"
    },
    {
      "constant": true,
      "inputs": [],
      "name": "aireCount",
      "outputs": [
        {
          "internalType": "uint256",
          "name": "",
          "type": "uint256"
        }
      ],
      "payable": false,
      "stateMutability": "view",
      "type": "function"
    },
    {
      "constant": true,
      "inputs": [
        {
          "internalType": "uint256",
          "name": "",
          "type": "uint256"
        }
      ],
      "name": "airePosts",
      "outputs": [
        {
          "internalType": "uint256",
          "name": "id",
          "type": "uint256"
        },
        {
          "internalType": "string",
          "name": "content",
          "type": "string"
        },
        {
          "internalType": "uint256",
          "name": "echos",
          "type": "uint256"
        },
        {
          "internalType": "uint256",
          "name": "mists",
          "type": "uint256"
        },
        {
          "internalType": "address payable",
          "name": "author",
          "type": "address"
        }
      ],
      "payable": false,
      "stateMutability": "view",
      "type": "function"
    },
    {
      "constant": true,
      "inputs": [],
      "name": "echos",
      "outputs": [
        {
          "internalType": "uint256",
          "name": "",
          "type": "uint256"
        }
      ],
      "payable": false,
      "stateMutability": "view",
      "type": "function"
    },
    {
      "constant": true,
      "inputs": [],
      "name": "mists",
      "outputs": [
        {
          "internalType": "uint256",
          "name": "",
          "type": "uint256"
        }
      ],
      "payable": false,
      "stateMutability": "view",
      "type": "function"
    },
    {
      "constant": true,
      "inputs": [],
      "name": "name",
      "outputs": [
        {
          "internalType": "string",
          "name": "",
          "type": "string"
        }
      ],
      "payable": false,
      "stateMutability": "view",
      "type": "function"
    },
    {
      "constant": false,
      "inputs": [
        {
          "internalType": "string",
          "name": "_content",
          "type": "string"
        }
      ],
      "name": "createAire",
      "outputs": [],
      "payable": false,
      "stateMutability": "nonpayable",
      "type": "function"
    },
    {
      "constant": false,
      "inputs": [
        {
          "internalType": "uint256",
          "name": "_id",
          "type": "uint256"
        }
      ],
      "name": "echoAire",
      "outputs": [],
      "payable": true,
      "stateMutability": "payable",
      "type": "function"
    },
    {
      "constant": false,
      "inputs": [
        {
          "internalType": "uint256",
          "name": "_id",
          "type": "uint256"
        }
      ],
      "name": "mistAire",
      "outputs": [],
      "payable": true,
      "stateMutability": "payable",
      "type": "function"
    }
  ],
  "bytecode": "0x608060405260006001556000600255600060035534801561001f57600080fd5b506040518060400160405280601381526020017f746f204149524520697320746f2048554d414e000000000000000000000000008152506000908051906020019061006b929190610071565b50610116565b828054600181600116156101000203166002900490600052602060002090601f016020900481019282601f106100b257805160ff19168380011785556100e0565b828001600101855582156100e0579182015b828111156100df5782518255916020019190600101906100c4565b5b5090506100ed91906100f1565b5090565b61011391905b8082111561010f5760008160009055506001016100f7565b5090565b90565b610d4c806101256000396000f3fe60806040526004361061007b5760003560e01c80638940b7951161004e5780638940b795146102ff578063c34779951461032d578063d40b64d21461035b578063d6eebc36146103865761007b565b806306fdde0314610080578063172eeb6114610110578063561a44c61461020c5780635c8fb9c2146102d4575b600080fd5b34801561008c57600080fd5b506100956103b1565b6040518080602001828103825283818151815260200191508051906020019080838360005b838110156100d55780820151818401526020810190506100ba565b50505050905090810190601f1680156101025780820380516001836020036101000a031916815260200191505b509250505060405180910390f35b34801561011c57600080fd5b506101496004803603602081101561013357600080fd5b810190808035906020019092919050505061044f565b60405180868152602001806020018581526020018481526020018373ffffffffffffffffffffffffffffffffffffffff1673ffffffffffffffffffffffffffffffffffffffff168152602001828103825286818151815260200191508051906020019080838360005b838110156101cd5780820151818401526020810190506101b2565b50505050905090810190601f1680156101fa5780820380516001836020036101000a031916815260200191505b50965050505050505060405180910390f35b34801561021857600080fd5b506102d26004803603602081101561022f57600080fd5b810190808035906020019064010000000081111561024c57600080fd5b82018360208201111561025e57600080fd5b8035906020019184600183028401116401000000008311171561028057600080fd5b91908080601f016020809104026020016040519081016040528093929190818152602001838380828437600081840152601f19601f82011690508083019250505050505050919291929050505061053d565b005b3480156102e057600080fd5b506102e9610726565b6040518082815260200191505060405180910390f35b61032b6004803603602081101561031557600080fd5b810190808035906020019092919050505061072c565b005b6103596004803603602081101561034357600080fd5b81019080803590602001909291905050506109ca565b005b34801561036757600080fd5b50610370610c21565b6040518082815260200191505060405180910390f35b34801561039257600080fd5b5061039b610c27565b6040518082815260200191505060405180910390f35b60008054600181600116156101000203166002900480601f0160208091040260200160405190810160405280929190818152602001828054600181600116156101000203166002900480156104475780601f1061041c57610100808354040283529160200191610447565b820191906000526020600020905b81548152906001019060200180831161042a57829003601f168201915b505050505081565b6004602052806000526040600020600091509050806000015490806001018054600181600116156101000203166002900480601f0160208091040260200160405190810160405280929190818152602001828054600181600116156101000203166002900480156105015780601f106104d657610100808354040283529160200191610501565b820191906000526020600020905b8154815290600101906020018083116104e457829003601f168201915b5050505050908060020154908060030154908060040160009054906101000a900473ffffffffffffffffffffffffffffffffffffffff16905085565b600081511161054b57600080fd5b6001600081548092919060010191905055506040518060a00160405280600154815260200182815260200160008152602001600081526020013373ffffffffffffffffffffffffffffffffffffffff168152506004600060015481526020019081526020016000206000820151816000015560208201518160010190805190602001906105d9929190610c2d565b50604082015181600201556060820151816003015560808201518160040160006101000a81548173ffffffffffffffffffffffffffffffffffffffff021916908373ffffffffffffffffffffffffffffffffffffffff1602179055509050507f1d6b5f5e5c82115a573f7a6045fcbe7492d0013b0bcf859084c4868f5567a728600154826000803360405180868152602001806020018581526020018481526020018373ffffffffffffffffffffffffffffffffffffffff1673ffffffffffffffffffffffffffffffffffffffff168152602001828103825286818151815260200191508051906020019080838360005b838110156106e55780820151818401526020810190506106ca565b50505050905090810190601f1680156107125780820380516001836020036101000a031916815260200191505b50965050505050505060405180910390a150565b60015481565b60008111801561073e57506001548111155b61074757600080fd5b61074f610cad565b600460008381526020019081526020016000206040518060a001604052908160008201548152602001600182018054600181600116156101000203166002900480601f0160208091040260200160405190810160405280929190818152602001828054600181600116156101000203166002900480156108105780601f106107e557610100808354040283529160200191610810565b820191906000526020600020905b8154815290600101906020018083116107f357829003601f168201915b5050505050815260200160028201548152602001600382015481526020016004820160009054906101000a900473ffffffffffffffffffffffffffffffffffffffff1673ffffffffffffffffffffffffffffffffffffffff1673ffffffffffffffffffffffffffffffffffffffff168152505090506000816080015190508073ffffffffffffffffffffffffffffffffffffffff166108fc349081150290604051600060405180830381858888f193505050501580156108d4573d6000803e3d6000fd5b50816060018051809190600101815250507f8490605cd7b81878e4d16604f07ff9c15970c6936e523a2e2e05d56b70469043826060015183602001513360405180848152602001806020018373ffffffffffffffffffffffffffffffffffffffff1673ffffffffffffffffffffffffffffffffffffffff168152602001828103825284818151815260200191508051906020019080838360005b8381101561098957808201518184015260208101905061096e565b50505050905090810190601f1680156109b65780820380516001836020036101000a031916815260200191505b5094505050505060405180910390a1505050565b6000811180156109dc57506001548111155b6109e557600080fd5b6109ed610cad565b600460008381526020019081526020016000206040518060a001604052908160008201548152602001600182018054600181600116156101000203166002900480601f016020809104026020016040519081016040528092919081815260200182805460018160011615610100020316600290048015610aae5780601f10610a8357610100808354040283529160200191610aae565b820191906000526020600020905b815481529060010190602001808311610a9157829003601f168201915b5050505050815260200160028201548152602001600382015481526020016004820160009054906101000a900473ffffffffffffffffffffffffffffffffffffffff1673ffffffffffffffffffffffffffffffffffffffff1673ffffffffffffffffffffffffffffffffffffffff16815250509050600081608001519050816040018051809190600101815250507f29b89ef5ea1c5ae7ce1171390023130bfaf91e3658cb0194d40ae0c6416e13da826040015183602001513360405180848152602001806020018373ffffffffffffffffffffffffffffffffffffffff1673ffffffffffffffffffffffffffffffffffffffff168152602001828103825284818151815260200191508051906020019080838360005b83811015610be0578082015181840152602081019050610bc5565b50505050905090810190601f168015610c0d5780820380516001836020036101000a031916815260200191505b5094505050505060405180910390a1505050565b60035481565b60025481565b828054600181600116156101000203166002900490600052602060002090601f016020900481019282601f10610c6e57805160ff1916838001178555610c9c565b82800160010185558215610c9c579182015b82811115610c9b578251825591602001919060010190610c80565b5b509050610ca99190610cf2565b5090565b6040518060a0016040528060008152602001606081526020016000815260200160008152602001600073ffffffffffffffffffffffffffffffffffffffff1681525090565b610d1491905b80821115610d10576000816000905550600101610cf8565b5090565b9056fea265627a7a72315820968342ae49b55c43baa2f1619a218151097a46412fba03f4de9bb7abc2b219d764736f6c63430005100032",
  "source": "pragma solidity >= 0.5.16;\n\ncontract Aire {\n  string public name;\n  uint public aireCount = 0;\n  uint public echos = 0;\n  uint public mists = 0;\n  mapping(uint => Aire) public airePosts;\n\n  struct Aire {\n    uint id;\n    string content;\n    uint echos;\n    uint mists;\n    address payable author;\n  }\n\n  // struct Entity {\n  //   uint id;\n  //   string username;\n  //   string[] airePosts;\n  //   address payable author;\n  // }\n\n  event AireCreated(\n    uint id,\n    string content,\n    uint echos,\n    uint mists,\n    address payable author\n  );\n\n  event AireEchoed(\n    uint id,\n    string content,\n    address payable author\n  );\n\n\n  event AireMist(\n    uint id,\n    string content,\n    address payable author\n  );\n\n  constructor() public {\n    name = \"to AIRE is to HUMAN\";\n  }\n\n  function createAire(string memory _content) public {\n    //require valid content\n    require(bytes(_content).length > 0);\n    aireCount++;\n    airePosts[aireCount] = Aire(aireCount, _content, 0, 0, msg.sender);\n    //trigger event emit back to client\n    emit AireCreated(aireCount, _content, 0, 0, msg.sender);\n  }\n\n  function echoAire(uint _id) public payable {\n    //memory does not need to be allocated if it is already a public field\n    require(_id > 0 && _id <= aireCount);\n    //figure how to append to their aire array the addresses of the aires instead of the content, otherwise it is duplication\n    Aire memory _aire = airePosts[_id];\n    address payable _author = _aire.author;\n    // address(_author).transfer(msg.value);\n    _aire.echos++;\n    // msg.sender.airePosts[msg.sender.airCount++]= _aire.echos++;\n    //check the async of this solidity line\n    emit AireEchoed(_aire.echos, _aire.content, msg.sender);\n  }\n\n  function mistAire(uint _id) public payable {\n    require(_id > 0 && _id <= aireCount);\n    Aire memory _aire = airePosts[_id];\n    address payable _author = _aire.author;\n    address(_author).transfer(msg.value);\n    _aire.mists++;\n    emit AireMist(_aire.mists, _aire.content, msg.sender);\n  }\n}",
  "sourcePath": "/Users/yvevestaltitan/AIRE/aire-ether/src/contracts/Aire.sol",
  "compiler": {
    "name": "solc",
    "version": "0.5.16+commit.9c3226ce.Emscripten.clang"
  },
  "schemaVersion": "3.1.0",
  "updatedAt": "2020-04-29T05:39:16.250Z",
  "networkType": "ethereum",
  "devdoc": {
    "methods": {}
  },
  "userdoc": {
    "methods": {}
  }
}